{
  "_format": "hh-sol-artifact-1",
  "contractName": "GetMeChai",
  "sourceName": "contracts/GetMeChai.sol",
  "abi": [
    {
      "anonymous": false,
      "inputs": [
        {
          "indexed": true,
          "internalType": "address",
          "name": "subscriber",
          "type": "address"
        },
        {
          "indexed": true,
          "internalType": "address",
          "name": "creator",
          "type": "address"
        },
        {
          "indexed": false,
          "internalType": "uint256",
          "name": "amount",
          "type": "uint256"
        },
        {
          "indexed": false,
          "internalType": "uint256",
          "name": "newBalance",
          "type": "uint256"
        }
      ],
      "name": "AutoPayDeposited",
      "type": "event"
    },
    {
      "anonymous": false,
      "inputs": [
        {
          "indexed": true,
          "internalType": "address",
          "name": "contributor",
          "type": "address"
        },
        {
          "indexed": true,
          "internalType": "uint256",
          "name": "postId",
          "type": "uint256"
        },
        {
          "indexed": false,
          "internalType": "uint256",
          "name": "amount",
          "type": "uint256"
        }
      ],
      "name": "Contributed",
      "type": "event"
    },
    {
      "anonymous": false,
      "inputs": [
        {
          "indexed": true,
          "internalType": "address",
          "name": "creator",
          "type": "address"
        },
        {
          "indexed": false,
          "internalType": "string",
          "name": "name",
          "type": "string"
        },
        {
          "indexed": false,
          "internalType": "uint256",
          "name": "price",
          "type": "uint256"
        }
      ],
      "name": "CreatorRegistered",
      "type": "event"
    },
    {
      "anonymous": false,
      "inputs": [
        {
          "indexed": true,
          "internalType": "address",
          "name": "creator",
          "type": "address"
        },
        {
          "indexed": false,
          "internalType": "uint256",
          "name": "amount",
          "type": "uint256"
        }
      ],
      "name": "EarningsWithdrawn",
      "type": "event"
    },
    {
      "anonymous": false,
      "inputs": [
        {
          "indexed": true,
          "internalType": "uint256",
          "name": "postId",
          "type": "uint256"
        },
        {
          "indexed": true,
          "internalType": "address",
          "name": "creator",
          "type": "address"
        },
        {
          "indexed": false,
          "internalType": "string",
          "name": "ipfsHash",
          "type": "string"
        },
        {
          "indexed": false,
          "internalType": "bool",
          "name": "isFree",
          "type": "bool"
        }
      ],
      "name": "PostAdded",
      "type": "event"
    },
    {
      "anonymous": false,
      "inputs": [
        {
          "indexed": true,
          "internalType": "address",
          "name": "subscriber",
          "type": "address"
        },
        {
          "indexed": true,
          "internalType": "address",
          "name": "creator",
          "type": "address"
        },
        {
          "indexed": false,
          "internalType": "uint256",
          "name": "expiry",
          "type": "uint256"
        }
      ],
      "name": "Subscribed",
      "type": "event"
    },
    {
      "anonymous": false,
      "inputs": [
        {
          "indexed": true,
          "internalType": "address",
          "name": "subscriber",
          "type": "address"
        },
        {
          "indexed": true,
          "internalType": "address",
          "name": "creator",
          "type": "address"
        },
        {
          "indexed": false,
          "internalType": "uint256",
          "name": "newExpiry",
          "type": "uint256"
        },
        {
          "indexed": false,
          "internalType": "uint256",
          "name": "pricePaid",
          "type": "uint256"
        }
      ],
      "name": "SubscriptionRenewed",
      "type": "event"
    },
    {
      "inputs": [
        {
          "internalType": "string",
          "name": "_ipfsHash",
          "type": "string"
        },
        {
          "internalType": "bool",
          "name": "_isFree",
          "type": "bool"
        }
      ],
      "name": "addPost",
      "outputs": [],
      "stateMutability": "nonpayable",
      "type": "function"
    },
    {
      "inputs": [
        {
          "internalType": "uint256",
          "name": "_postId",
          "type": "uint256"
        }
      ],
      "name": "contribute",
      "outputs": [],
      "stateMutability": "payable",
      "type": "function"
    },
    {
      "inputs": [
        {
          "internalType": "address",
          "name": "",
          "type": "address"
        }
      ],
      "name": "creatorEarnings",
      "outputs": [
        {
          "internalType": "uint256",
          "name": "",
          "type": "uint256"
        }
      ],
      "stateMutability": "view",
      "type": "function"
    },
    {
      "inputs": [
        {
          "internalType": "address",
          "name": "",
          "type": "address"
        }
      ],
      "name": "creators",
      "outputs": [
        {
          "internalType": "address",
          "name": "wallet",
          "type": "address"
        },
        {
          "internalType": "string",
          "name": "name",
          "type": "string"
        },
        {
          "internalType": "uint256",
          "name": "subscriptionPrice",
          "type": "uint256"
        },
        {
          "internalType": "bool",
          "name": "isRegistered",
          "type": "bool"
        }
      ],
      "stateMutability": "view",
      "type": "function"
    },
    {
      "inputs": [
        {
          "internalType": "address",
          "name": "_creator",
          "type": "address"
        }
      ],
      "name": "depositAutoPay",
      "outputs": [],
      "stateMutability": "payable",
      "type": "function"
    },
    {
      "inputs": [
        {
          "internalType": "address",
          "name": "_subscriber",
          "type": "address"
        },
        {
          "internalType": "address",
          "name": "_creator",
          "type": "address"
        }
      ],
      "name": "isSubscribed",
      "outputs": [
        {
          "internalType": "bool",
          "name": "",
          "type": "bool"
        }
      ],
      "stateMutability": "view",
      "type": "function"
    },
    {
      "inputs": [
        {
          "internalType": "uint256",
          "name": "",
          "type": "uint256"
        }
      ],
      "name": "posts",
      "outputs": [
        {
          "internalType": "uint256",
          "name": "id",
          "type": "uint256"
        },
        {
          "internalType": "address",
          "name": "creator",
          "type": "address"
        },
        {
          "internalType": "string",
          "name": "ipfsHash",
          "type": "string"
        },
        {
          "internalType": "bool",
          "name": "isFree",
          "type": "bool"
        },
        {
          "internalType": "uint256",
          "name": "contributions",
          "type": "uint256"
        }
      ],
      "stateMutability": "view",
      "type": "function"
    },
    {
      "inputs": [
        {
          "internalType": "string",
          "name": "_name",
          "type": "string"
        },
        {
          "internalType": "uint256",
          "name": "_price",
          "type": "uint256"
        }
      ],
      "name": "registerCreator",
      "outputs": [],
      "stateMutability": "nonpayable",
      "type": "function"
    },
    {
      "inputs": [
        {
          "internalType": "address",
          "name": "_creator",
          "type": "address"
        }
      ],
      "name": "renewSubscription",
      "outputs": [],
      "stateMutability": "nonpayable",
      "type": "function"
    },
    {
      "inputs": [
        {
          "internalType": "address",
          "name": "_creator",
          "type": "address"
        }
      ],
      "name": "subscribe",
      "outputs": [],
      "stateMutability": "payable",
      "type": "function"
    },
    {
      "inputs": [
        {
          "internalType": "address",
          "name": "",
          "type": "address"
        },
        {
          "internalType": "address",
          "name": "",
          "type": "address"
        }
      ],
      "name": "subscriptions",
      "outputs": [
        {
          "internalType": "uint256",
          "name": "expiry",
          "type": "uint256"
        },
        {
          "internalType": "uint256",
          "name": "autoPayBalance",
          "type": "uint256"
        }
      ],
      "stateMutability": "view",
      "type": "function"
    },
    {
      "inputs": [],
      "name": "withdrawEarnings",
      "outputs": [],
      "stateMutability": "nonpayable",
      "type": "function"
    }
  ],
  "bytecode": "0x608060405260018055348015601357600080fd5b5060016000556114fc806100286000396000f3fe6080604052600436106100a75760003560e01c8063933166e111610064578063933166e1146101a2578063b73c6ce9146101d2578063c1cbbca7146101e7578063e02eb109146101fa578063f6416ef61461021a578063fa3c30a81461024a57600080fd5b80630b1e7f83146100ac5780631da6e17c146100e657806341a7726a1461010857806359ba6a041461011b5780636207d31b1461012e5780636f0df5f414610182575b600080fd5b3480156100b857600080fd5b506100cc6100c736600461102e565b610285565b6040516100dd95949392919061108d565b60405180910390f35b3480156100f257600080fd5b50610106610101366004611114565b61034a565b005b61010661011636600461118c565b61050b565b61010661012936600461118c565b610710565b34801561013a57600080fd5b5061016d6101493660046111ae565b60046020908152600092835260408084209091529082529020805460019091015482565b604080519283526020830191909152016100dd565b34801561018e57600080fd5b5061010661019d3660046111e1565b61082e565b3480156101ae57600080fd5b506101c26101bd36600461118c565b610a08565b6040516100dd949392919061122d565b3480156101de57600080fd5b50610106610ac7565b6101066101f536600461102e565b610cb8565b34801561020657600080fd5b5061010661021536600461118c565b610ddb565b34801561022657600080fd5b5061023a6102353660046111ae565b610f9f565b60405190151581526020016100dd565b34801561025657600080fd5b5061027761026536600461118c565b60056020526000908152604090205481565b6040519081526020016100dd565b60036020526000908152604090208054600182015460028301805492936001600160a01b03909216926102b790611269565b80601f01602080910402602001604051908101604052809291908181526020018280546102e390611269565b80156103305780601f1061030557610100808354040283529160200191610330565b820191906000526020600020905b81548152906001019060200180831161031357829003601f168201915b505050506003830154600490930154919260ff1691905085565b3360009081526002602052604090206004015460ff166103b15760405162461bcd60e51b815260206004820152601d60248201527f474d433a204e6f74206120726567697374657265642063726561746f7200000060448201526064015b60405180910390fd5b60018054600091826103c2836112b9565b9190505590506040518060a00160405280828152602001336001600160a01b0316815260200185858080601f01602080910402602001604051908101604052809392919081815260200183838082843760009201829052509385525050508415156020808401919091526040928301829052848252600381529082902083518155908301516001820180546001600160a01b0319166001600160a01b0390921691909117905590820151600282019061047b9082611337565b5060608201516003828101805460ff1916921515929092179091556080909201516004909101553360008181526002602090815260408083209094018054600181018255908352912001839055905182907f587205bc927d8c16c38651008655932949327cbaf84613ec1c95f331d7a1e7a3906104fd9088908890889061141f565b60405180910390a350505050565b6001600160a01b03811660009081526002602052604090206004015460ff166105465760405162461bcd60e51b81526004016103a890611445565b6001600160a01b038116330361059e5760405162461bcd60e51b815260206004820152601a60248201527f474d433a2043616e6e6f742073656c662d73756273637269626500000000000060448201526064016103a8565b6105a83382610f9f565b156105f55760405162461bcd60e51b815260206004820152601760248201527f474d433a20416c7265616479207375627363726962656400000000000000000060448201526064016103a8565b6001600160a01b038116600090815260026020819052604090912001543481146106615760405162461bcd60e51b815260206004820152601960248201527f474d433a20496e636f72726563742045544820616d6f756e740000000000000060448201526064016103a8565b61066e62278d004261147c565b3360009081526004602090815260408083206001600160a01b03871684528252808320939093556005905290812080543492906106ac90849061147c565b90915550503360008181526004602090815260408083206001600160a01b038716808552908352928190205490519081529192917f1299b0ad0a8e7c2403716ae6507195ba96bd8cac7f49d8c129e18f9ae51374f091015b60405180910390a35050565b6001600160a01b03811660009081526002602052604090206004015460ff1661074b5760405162461bcd60e51b81526004016103a890611445565b6000341161078f5760405162461bcd60e51b815260206004820152601160248201527011d350ce8816995c9bc819195c1bdcda5d607a1b60448201526064016103a8565b3360009081526004602090815260408083206001600160a01b0385168452909152812060010180543492906107c590849061147c565b90915550503360008181526004602090815260408083206001600160a01b03861680855290835292819020600101548151348152928301529192917f524ab422837c3b1deec9934d0e14a3a503f6e56a2a81a1194d9ec5b48d450caf910160405180910390a350565b3360009081526002602052604090206004015460ff16156108915760405162461bcd60e51b815260206004820152601760248201527f474d433a20416c7265616479207265676973746572656400000000000000000060448201526064016103a8565b600081116108d65760405162461bcd60e51b8152602060048201526012602482015271474d433a20496e76616c696420707269636560701b60448201526064016103a8565b6040518060a00160405280336001600160a01b0316815260200184848080601f01602080910402602001604051908101604052809392919081815260200183838082843760009201829052509385525050506020808301859052604080518381528083018252818501526001606090940184905233835260028252909120835181546001600160a01b0319166001600160a01b039091161781559083015190918201906109839082611337565b5060408201516002820155606082015180516109a9916003840191602090910190610fce565b50608091909101516004909101805460ff191691151591909117905560405133907fbf620853fd890bc166209817a64206f57de9aa2bc196bd5bab92d17a38d6515d906109fb9086908690869061148f565b60405180910390a2505050565b600260205260009081526040902080546001820180546001600160a01b039092169291610a3490611269565b80601f0160208091040260200160405190810160405280929190818152602001828054610a6090611269565b8015610aad5780601f10610a8257610100808354040283529160200191610aad565b820191906000526020600020905b815481529060010190602001808311610a9057829003601f168201915b50505050600283015460049093015491929160ff16905084565b3360009081526002602052604090206004015460ff16610b295760405162461bcd60e51b815260206004820152601d60248201527f474d433a204e6f74206120726567697374657265642063726561746f7200000060448201526064016103a8565b600260005403610b7b5760405162461bcd60e51b815260206004820152601f60248201527f5265656e7472616e637947756172643a207265656e7472616e742063616c6c0060448201526064016103a8565b600260009081553381526005602052604090205480610bdc5760405162461bcd60e51b815260206004820152601860248201527f474d433a204e6f7468696e6720746f207769746864726177000000000000000060448201526064016103a8565b336000818152600560205260408082208290555190919083908381818185875af1925050503d8060008114610c2d576040519150601f19603f3d011682016040523d82523d6000602084013e610c32565b606091505b5050905080610c7a5760405162461bcd60e51b815260206004820152601460248201527311d350ce8815da5d1a191c985dc819985a5b195960621b60448201526064016103a8565b60405182815233907f48dc35af7b45e2a81fffad55f6e2fafacdb1d3d0d50d24ebdc16324f5ba757f19060200160405180910390a250506001600055565b600081815260036020526040902060018101546001600160a01b0316610d145760405162461bcd60e51b815260206004820152601160248201527011d350ce88125b9d985b1a59081c1bdcdd607a1b60448201526064016103a8565b60003411610d5d5760405162461bcd60e51b815260206004820152601660248201527523a6a19d102d32b9379031b7b73a3934b13aba34b7b760511b60448201526064016103a8565b34816004016000828254610d71919061147c565b909155505060018101546001600160a01b031660009081526005602052604081208054349290610da290849061147c565b9091555050604051348152829033907ffa35a310d7113dddce1c275da946348e9aaebf9050b00b372033c4d84b0bd6eb90602001610704565b6001600160a01b03811660009081526002602052604090206004015460ff16610e165760405162461bcd60e51b81526004016103a890611445565b6001600160a01b0381163303610e6e5760405162461bcd60e51b815260206004820152601760248201527f474d433a20496e76616c69642073656c662d72656e657700000000000000000060448201526064016103a8565b3360009081526004602090815260408083206001600160a01b03851684528252808320600292839052922001546001820154811115610eef5760405162461bcd60e51b815260206004820152601960248201527f474d433a20496e73756666696369656e742062616c616e63650000000000000060448201526064016103a8565b80826001016000828254610f0391906114b3565b909155505081546000904210610f195742610f1c565b82545b9050610f2b62278d008261147c565b83556001600160a01b03841660009081526005602052604081208054849290610f5590849061147c565b9091555050825460408051918252602082018490526001600160a01b0386169133917f912b43ef56adb4965a19e2a89e582b970c0c0d50c8c0155dc1ac7c44be6c274591016104fd565b6001600160a01b0380831660009081526004602090815260408083209385168352929052205442105b92915050565b828054828255906000526020600020908101928215611009579160200282015b82811115611009578251825591602001919060010190610fee565b50611015929150611019565b5090565b5b80821115611015576000815560010161101a565b60006020828403121561104057600080fd5b5035919050565b6000815180845260005b8181101561106d57602081850181015186830182015201611051565b506000602082860101526020601f19601f83011685010191505092915050565b8581526001600160a01b038516602082015260a0604082018190526000906110b790830186611047565b931515606083015250608001529392505050565b60008083601f8401126110dd57600080fd5b50813567ffffffffffffffff8111156110f557600080fd5b60208301915083602082850101111561110d57600080fd5b9250929050565b60008060006040848603121561112957600080fd5b833567ffffffffffffffff81111561114057600080fd5b61114c868287016110cb565b9094509250506020840135801515811461116557600080fd5b809150509250925092565b80356001600160a01b038116811461118757600080fd5b919050565b60006020828403121561119e57600080fd5b6111a782611170565b9392505050565b600080604083850312156111c157600080fd5b6111ca83611170565b91506111d860208401611170565b90509250929050565b6000806000604084860312156111f657600080fd5b833567ffffffffffffffff81111561120d57600080fd5b611219868287016110cb565b909790965060209590950135949350505050565b6001600160a01b038516815260806020820181905260009061125190830186611047565b60408301949094525090151560609091015292915050565b600181811c9082168061127d57607f821691505b60208210810361129d57634e487b7160e01b600052602260045260246000fd5b50919050565b634e487b7160e01b600052601160045260246000fd5b6000600182016112cb576112cb6112a3565b5060010190565b634e487b7160e01b600052604160045260246000fd5b601f82111561133257806000526020600020601f840160051c8101602085101561130f5750805b601f840160051c820191505b8181101561132f576000815560010161131b565b50505b505050565b815167ffffffffffffffff811115611351576113516112d2565b6113658161135f8454611269565b846112e8565b6020601f82116001811461139957600083156113815750848201515b600019600385901b1c1916600184901b17845561132f565b600084815260208120601f198516915b828110156113c957878501518255602094850194600190920191016113a9565b50848210156113e75786840151600019600387901b60f8161c191681555b50505050600190811b01905550565b81835281816020850137506000828201602090810191909152601f909101601f19169091010190565b6040815260006114336040830185876113f6565b90508215156020830152949350505050565b6020808252601b908201527f474d433a2043726561746f72206e6f7420726567697374657265640000000000604082015260600190565b80820180821115610fc857610fc86112a3565b6040815260006114a36040830185876113f6565b9050826020830152949350505050565b81810381811115610fc857610fc86112a356fea2646970667358221220642d12546e004caefa638355250b82ef45647962c4dee2a1b7a48d9a7e5c9e7c64736f6c634300081c0033",
  "linkReferences": {},
  "deployedLinkReferences": {}
}